:100000000C94E1020C94A2080C947B080C94090354
:100010000C9409030C9409030C9409030C94090330
:100020000C9409030C9409030C9409030C94090320
:100030000C9409030C9409030C9409030C94090310
:100040000C9431080C9409030C94D2070C94AC075F
:100050000C9409030C9409030C9409030C940903F0
:100060000C948B090C94090300000000003E5B4FC8
:100070005B3E3E6B4F6B3E1C3E7C3E1C183C7E3C08
:10008000181C577D571C1C5E7F5E1C00183C180016
:10009000FFE7C3E7FF0018241800FFE7DBE7FF30A6
:1000A000483A060E2629792926407F050507407F14
:1000B00005253F5A3CE73C5A7F3E1C1C08081C1C87
:1000C0003E7F14227F22145F5F005F5F06097F017D
:1000D0007F006689956A606060606094A2FFA29468
:1000E00008047E040810207E201008082A1C080836
:1000F0001C2A08081E101010100C1E0C1E0C303884
:100100003E3830060E3E0E06000000000000005F84
:1001100000000007000700147F147F14242A7F2AA0
:100120001223130864623649562050000807030062
:10013000001C2241000041221C002A1C7F1C2A08AE
:10014000083E080800807030000808080808000011
:1001500060600020100804023E5149453E00427F85
:10016000400072494949462141494D331814127FD4
:100170001027454545393C4A494931412111090774
:100180003649494936464949291E000014000000F5
:1001900040340000000814224114141414140041C7
:1001A00022140802015909063E415D594E7C121184
:1001B000127C7F494949363E414141227F414141BC
:1001C0003E7F494949417F090909013E4141517337
:1001D0007F0808087F00417F41002040413F017FA8
:1001E000081422417F404040407F021C027F7F0470
:1001F00008107F3E4141413E7F090909063E4151B9
:10020000215E7F09192946264949493203017F01A8
:10021000033F4040403F1F2040201F3F4038403FA9
:10022000631408146303047804036159494D4300BF
:100230007F4141410204081020004141417F0402F6
:10024000010204404040404000030708002054548D
:1002500078407F284444383844444428384444286B
:100260007F385454541800087E090218A4A49C78BE
:100270007F0804047800447D40002040403D007F1A
:100280001028440000417F40007C047804787C08FA
:100290000404783844444438FC18242418182424CE
:1002A00018FC7C08040408485454542404043F44B3
:1002B000243C4040207C1C2040201C3C4030403CE2
:1002C00044281028444C9090907C4464544C440042
:1002D00008364100000077000000413608000201A6
:1002E0000204023C2623263C1EA1A161123A404092
:1002F000207A38545455592155557941225454780F
:1003000042215554784020545579400C1E527212A7
:100310003955555559395454545939555454580030
:1003200000457C410002457D420001457C407D1234
:1003300011127DF0282528F07C5455450020545496
:100340007C547C0A097F4932494949323A44444441
:100350003A324A4848303A4141217A3A424020787C
:10036000009DA0A07D3D4242423D3D4040403D3C7D
:1003700024FF2424487E4943662B2FFC2F2BFF09A2
:1003800029F620C0887E0903205454794100004496
:100390007D413048484A32384040227A007A0A0A81
:1003A000727D0D19317D2629292F282629292926F4
:1003B00030484D4020380808080808080808382F39
:1003C00010C8ACBA2F102834FA00007B00000814C3
:1003D0002A142222142A14085500550055AA55AA99
:1003E00055AAFF55FF55FF000000FF00101010FF39
:1003F00000141414FF001010FF00FF1010F010F094
:10040000141414FC001414F700FF0000FF00FF1484
:1004100014F404FC141417101F10101F101F1414D0
:10042000141F00101010F0000000001F101010101A
:100430001F10101010F010000000FF10101010100E
:1004400010101010FF10000000FF140000FF00FF4C
:1004500000001F10170000FC04F4141417101714E8
:1004600014F404F40000FF00F7141414141414140A
:10047000F700F7141414171410101F101F1414147D
:10048000F4141010F010F000001F101F0000001FE7
:1004900014000000FC140000F010F01010FF10FF1A
:1004A000141414FF141010101F00000000F010FFAF
:1004B000FFFFFFFFF0F0F0F0F0FFFFFF0000000093
:1004C00000FFFF0F0F0F0F0F3844443844FC4A4A17
:1004D0004A347E02020606027E027E0263554941CC
:1004E000633844443C04407E201E2006027E020203
:1004F00099A5E7A5991C2A492A1C4C7201724C3017
:100500004A4D4D303048784830BC625A463D3E49ED
:100510004949007E0101017E2A2A2A2A2A44445F91
:10052000444440514A444040444A51400000FF0185
:1005300003E080FF000008086B6B08361236243693
:10054000060F090F060000181800000010100030F8
:1005500040FF0101001F01011E00191D1712003C80
:100560003C3C3C000000000000000000240027008C
:100570002A003C7EC3C3C3C37E3C000000002500AC
:1005800028002B00040404040404040402020202F0
:100590000202030303030303010204081020408046
:1005A00001020408102001020408102000000008C5
:1005B000000201000003040700000000000000002A
:1005C000E81111241FBECFEFD8E0DEBFCDBF11E090
:1005D000A0E0B1E0E6E2F6E202C005900D92A83696
:1005E000B107D9F723E0A8E6B1E001C01D92AD3C08
:1005F000B207E1F712E0C1EED2E004C02197FE019C
:100600000E940613C03ED107C9F70E94B20C0C9499
:1006100011130C940000FC01538D448D252F30E004
:10062000842F90E0821B930B541710F0CF960895FF
:1006300001970895FC01918D828D981761F0828D4C
:10064000DF01A80FB11D5D968C91928D9F5F9F7306
:10065000928F90E008958FEF9FEF0895FC01918DA8
:10066000828D981731F0828DE80FF11D858D90E015
:1006700008958FEF9FEF0895FC01918D228D892FB2
:1006800090E0805C9F4F821B91098F73992708959A
:1006900085E092E00E943C0321E0892B09F420E0F0
:1006A000822F0895FC01848DDF01A80FB11DA35A8C
:1006B000BF4F2C91848D90E001968F739927848F82
:1006C000A689B7892C93A089B1898C9180648C9379
:1006D000938D848D981306C00288F389E02D808164
:1006E0008F7D80830895EF92FF920F931F93CF9396
:1006F000DF93EC0181E0888F9B8D8C8D981305C072
:10070000E889F989808185FD24C0F62E0B8D10E0E3
:100710000F5F1F4F0F731127E02E8C8DE8120CC056
:100720000FB607FCFACFE889F989808185FFF5CFFC
:10073000CE010E945203F1CF8B8DFE01E80FF11D17
:10074000E35AFF4FF0820B8FEA89FB898081806238
:1007500007C0EE89FF896083E889F9898081806418
:10076000808381E090E0DF91CF911F910F91FF9006
:10077000EF900895CF93DF93EC01888D8823C9F023
:10078000EA89FB89808185FD05C0A889B9898C919A
:1007900086FD0FC00FB607FCF5CF808185FFF2CF35
:1007A000A889B9898C9185FFEDCFCE010E945203B3
:1007B000E7CFDF91CF91089580E090E0892B29F079
:1007C0000E94480381110C94000008950895FC01D3
:1007D0004830510508F040C068307105E8F585895A
:1007E000823059F08330A1F08130C1F487E090E08D
:1007F000841B950BAB01BC0111C087E090E0DC01CC
:10080000A61BB70BBD01DC01A41BB50BAD0106C0D7
:1008100087E090E0861B970BBA01AC01695F7F4FC0
:1008200067707727440F551FE40FF51F81E090E0B4
:1008300002C0880F991F6A95E2F7232B29F0208DBB
:10084000318D822B932B06C080959095208D318D14
:1008500082239323918F808F089508952F923F9242
:100860004F925F926F927F928F929F92AF92BF92C0
:10087000CF92DF92EF92FF920F931F93CF93DF936C
:10088000CDB7DEB72D970FB6F894DEBF0FBECDBF44
:100890009D878C876A30A1F4DC0154962C91549783
:1008A0001E968D919C911F97B8E02B9F800D911DF6
:1008B0001124EC85FD859787868715861486FBC0F5
:1008C0006D3009F4F8C0AC85BD855496BC91B983F0
:1008D000EC85FD850288F389E02DFD83EC83AC85F2
:1008E000BD8550960D90BC91A02DBF83AE83EC8545
:1008F000FD8586849784C484D58480859185C816B7
:10090000D906C4F0AC85BD8554964C915497242FDC
:1009100030E01C968D919C911D97B6E04B9F800D09
:10092000911D1124EC85FD859587848746894111A9
:100930009EC0C1C0AC85BD851A968D919C911B97B8
:1009400088169906FCF6B981AB2EB12CC601E6E0FB
:10095000BE9F800D911D1124181619069CF6C50125
:1009600023E0880F991F2A95E1F7880D991D181625
:10097000190644F6AC85BD8557968C91811103C04C
:10098000603B08F06F5FB5E06B9FB001112416016A
:100990001A82FB01EC19FD09F987E8879401285FA9
:1009A0003F4F3B872A873A81353049F0E885F98502
:1009B000E20DF31DE859FF4F54915B8301C01B8288
:1009C000240134018B8180FF13C0AC85BD85ED917E
:1009D000FC91B981B13031F40084F185E02D2E8194
:1009E0003F8119C00288F389E02DEE80FF801EC090
:1009F000EC81FD812E813F81E217F307F1F0AC8598
:100A0000BD85ED91FC91B981B13059F40084F18537
:100A1000E02D2C813D81A301B1018C859D85099537
:100A20000CC00288F389E02DEC80FD8085019501E2
:100A3000A201B6018C859D850995EB81E695EB8336
:100A4000FFEF6F1A7F0A4A0C5B1C2A853B856216F2
:100A5000730609F0B7CF3A813F5F3A835FEF251AFB
:100A6000350ACA0CDB1C363009F09DCF4BCF4AEF5C
:100A70004203B001439F700D1124AC85BD851896CB
:100A80004D915C911997460F571F481759079CF4D1
:100A900083E0220F331F8A95E1F71E968D919C917A
:100AA0001F97280F391F1F963C932E931E971D9654
:100AB0001C921E921C9781E090E02D960FB6F89440
:100AC000DEBF0FBECDBFDF91CF911F910F91FF9081
:100AD000EF90DF90CF90BF90AF909F908F907F90DE
:100AE0006F905F904F903F902F900895EF92FF92FC
:100AF0000F931F93DC01ED91FC9111971A960D91C4
:100B00001C911B9718962D913C9119970288F38997
:100B1000E02D7B0140E050E060E070E009951F911E
:100B20000F91FF90EF9008956F927F928F929F9216
:100B3000AF92BF92CF92DF92EF92FF920F931F93EB
:100B4000CF93DF936C015A014801EB013B01620E28
:100B5000731EC615D70574F4D601ED91FC9104847B
:100B6000F585E02D87019401A501BE01C601099517
:100B70002196EFCFDF91CF911F910F91FF90EF90D2
:100B8000DF90CF90BF90AF909F908F907F906F90AD
:100B90000895EF92FF920F931F93DC01ED91FC916A
:100BA000260F371F215031090284F385E02D78018B
:100BB0008A0109951F910F91FF90EF900895EF9290
:100BC000FF920F931F937801DC01ED91FC91240FAC
:100BD000351F8901015011090284F385E02D9B0125
:100BE00009951F910F91FF90EF9008956F927F925A
:100BF0008F929F92AF92BF92CF92DF92EF92FF922D
:100C00000F931F93CF93DF93EC014B015A016901BE
:100C10003801E881F9810684F785E02D870109957F
:100C2000E881F981A501460D571D415051090684FF
:100C3000F785E02D9601B401CE010995E881F9818F
:100C40000484F585E02D9301A501B401CE01099539
:100C5000E881F981C80CD91CB6016150710904847E
:100C6000F585E02D9301A501CE010995DF91CF9186
:100C70001F910F91FF90EF90DF90CF90BF90AF90BA
:100C80009F908F907F906F9008952F923F924F92F8
:100C90005F926F927F928F929F92AF92BF92CF920C
:100CA000DF92EF92FF920F931F93CF93DF9300D0C9
:100CB0001F92CDB7DEB74C017B836A836A0159016D
:100CC00017019801241B350B37FF03C0319521957F
:100CD0003109C5014A815B81841B950B97FF03C0D5
:100CE00091958195910951E059838217930714F0EA
:100CF00019820BC09A2D8B2D5801092F182F9A811C
:100D00008B81DB82CA82C92ED82E8A819B81A8164C
:100D1000B9065CF49C2D8D2D6801092F182F9A813E
:100D20008B81BB82AA82A92EB82E2501AA81BB8104
:100D30004A1A5B0A38016C187D0877FE03C071946B
:100D400061947108720157FE03C0BFEFEB1AFB0AF2
:100D5000F594E794C016D1061CF00FEF1FEF1FC0EB
:100D600001E010E01CC0D401ED91FC91B981008438
:100D7000F185E02D9101BB23C1F04A815B81B60171
:100D8000C4010995E618F708F7FE04C0C00ED11E8D
:100D9000E40CF51CEA81FB813196FB83EA834A81EE
:100DA0005B81A416B506FCF604C0A6016A817B81AE
:100DB000E7CF0F900F900F90DF91CF911F910F9180
:100DC000FF90EF90DF90CF90BF90AF909F908F906B
:100DD0007F906F905F904F903F902F90089585ED9A
:100DE0008093BC008091BC0084FDFCCF1092E00198
:100DF000089540918A01262F30E0240F311D2132C1
:100E00003105DCF42091E0012430C9F4FC0180E0DC
:100E100090E0861758F430918A012191DC01A8599D
:100E2000BE4FA30FB11D2C930196F3CF80918A0181
:100E3000680F60938A0180E0089581E0089582E060
:100E40000895089581E090E03091B9012091B801B2
:100E5000321710F480E090E0919581959109089502
:100E60008091B9019091B801891730F48F5F809318
:100E7000B90180E090E008958FEF9FEF0895809191
:100E8000B80190E02091B901821B91090895CF9299
:100E9000DF92EF92FF920F931F93CF93DF937C012A
:100EA000262F972F8A018091E101882391F0C62F88
:100EB000D72F6E01C40ED51ECC15DD0571F06991DA
:100EC000D701ED91FC910190F081E02DC7010995CA
:100ED000F3CF642F822F0E94F906C801DF91CF91D2
:100EE0001F910F91FF90EF90DF90CF900895CF93D7
:100EF000DF931F92CDB7DEB769832091E1012223F2
:100F0000D1F020910402203240F021E030E0FC01D9
:100F10003383228380E090E015C08091E201E82FC6
:100F2000F0E0ED51FE4F998190838F5F8093E20155
:100F30008093040205C061E0CE0101960E94F9068B
:100F400081E090E00F90DF91CF910895089580E0C7
:100F500090E008950E940C131F920F920FB60F920B
:100F600011242F933F934F935F936F937F938F93AE
:100F70009F93AF93BF93EF93FF9385E092E00E941E
:100F80005203FF91EF91BF91AF919F918F917F910C
:100F90006F915F914F913F912F910F900FBE0F90E6
:100FA0001F9018951F920F920FB60F9211242F9336
:100FB0008F939F93EF93FF93E0911502F0911602A8
:100FC0008081E0911B02F0911C0282FD12C0908191
:100FD00080911E028F5F8F7320911F02821751F044
:100FE000E0911E02F0E0EB5FFD4F958F80931E02B3
:100FF00001C08081FF91EF919F918F912F910F9070
:101000000FBE0F901F9018952FB7F8946091B40100
:101010007091B5018091B6019091B7012FBF0895ED
:101020000F931F93109209031092080310920D035F
:1010300010920C030E940408DC01CB01805F984DE4
:10104000AF4FBF4F8C019D01EFE1F3E0808311832F
:101050002283338314821582168217821F910F9187
:1010600008951F920F920FB60F9211242F933F9362
:101070008F939F93AF93BF938091B4019091B501EB
:10108000A091B601B091B7013091B30123E0230FD5
:101090002D3720F40196A11DB11D05C026E8230FB0
:1010A0000296A11DB11D2093B3018093B4019093CA
:1010B000B501A093B601B093B7018091AF019091B3
:1010C000B001A091B101B091B2010196A11DB11D75
:1010D0008093AF019093B001A093B101B093B2019E
:1010E000BF91AF919F918F913F912F910F900FBE24
:1010F0000F901F9018951F920F920FB60F92112408
:101100002F933F934F935F936F937F938F939F930F
:10111000AF93BF93EF93FF93E0910201F09103012E
:101120000995FF91EF91BF91AF919F918F917F9121
:101130006F915F914F913F912F910F900FBE0F9044
:101140001F9018951F920F920FB60F9211242F9394
:101150003F934F935F936F937F938F939F93AF933F
:10116000BF93EF93FF93E0910001F0910101099586
:10117000FF91EF91BF91AF919F918F917F916F916F
:101180005F914F913F912F910F900FBE0F901F9045
:101190001895FC011382128288E090E09583848385
:1011A000978386839187808793878287158A1586A0
:1011B00014861786168681E0848B2FEF3FEF338BE2
:1011C000228B318B208B868B178A8CE091E0918368
:1011D000808308959C01205F3F4FFC011192119282
:1011E000CF01E217F307C9F70895EF92FF920F932B
:1011F0001F93CF93DF93EC01888991E09093E101F5
:10120000809303021092E2011092040260E082EAED
:1012100092E00E9477078E01005F1F4F7E01688178
:1012200082EA92E00E9477072296F701618182EAC2
:1012300092E00E947707C017D10781F7DF91CF9125
:101240001F910F91FF90EF900C942A0BCF92DF9299
:10125000EF92FF920F931F93CF93DF93EC0169A757
:101260004AA73CA72BA76C0188E1C80ED11CC60178
:101270000E94EA088BA59CA5019799F40AA529A5C7
:101280004AA569A510E030E02F5F3F4F50E070E0C5
:1012900061507109EE24E394F12CCE010E944506C1
:1012A0001AC08BA59CA5892BB1F40AA529A54AA52E
:1012B00069A510E00F5F1F4F30E02F5F3F4F50E0F8
:1012C0004150510970E061507109EE24E394F12C12
:1012D000CE010E949405C601DF91CF911F910F911D
:1012E000FF90EF90DF90CF900C94F508FC0180897F
:1012F00091E09093E101809303021092E201109239
:101300000402603108F06FE0606E82EA92E00E94B1
:1013100077070C942A0B1F920F920FB60F9211248D
:101320002F933F934F935F936F937F938F939F93ED
:10133000AF93BF93EF93FF938091B900887F80367E
:1013400009F49CC068F5883209F45BC090F48031E0
:1013500009F454C038F4882309F4F6C0883009F43D
:101360004DC0F6C0883109F44CC0803209F45DC02C
:10137000EFC0803409F468C048F4803309F455C0E4
:10138000883309F0E5C08093DE01D8C0803509F4C8
:101390004FC0883509F45DC0883409F0D9C0D6C083
:1013A000883909F4C7C0A8F4883709F467C038F44D
:1013B000883609F463C0803709F460C0C9C0883832
:1013C00009F4B8C0803909F45FC0803809F0C0C0A2
:1013D0005BC0803B09F486C038F4803A09F466C0EB
:1013E000883A09F47FC0B4C0803C09F4A7C0883CA7
:1013F00009F4A4C0883B09F48AC0AAC08091BB014B
:1014000010C09091DD018091DC01981770F5E0919A
:10141000DD0181E08E0F8093DD01F0E0E454FE4FAA
:1014200080818093BB0085EC86C08093DE018EC0F6
:10143000E091DD0181E08E0F8093DD018091BB00A2
:10144000F0E0E454FE4F80839091DD018091DC0157
:101450006EC0E091DD0181E08E0F8093DD0180910F
:10146000BB00F0E0E454FE4F80838091DF018111E6
:101470006DC081E08093BA0184EA61C083E080930B
:10148000E0011092AE01CFCF8091AE01803208F022
:1014900051C0E091AE0181E08E0F8093AE0180914A
:1014A000BB00F0E0E257FE4F8083BDCF85EC809318
:1014B000BC001092E0018091AE01803230F4E091E6
:1014C000AE01F0E0E257FE4F10826091AE0170E095
:1014D000E0918C01F0918D018EE891E009951092D8
:1014E000AE0136C084E08093E00110928B0110922F
:1014F0008A01E0918801F0918901099580918A0122
:10150000811105C081E080938A0110926801E09109
:101510008B0181E08E0F80938B01F0E0E859FE4F44
:1015200080818093BB0090918B0180918A019817F4
:1015300008F479CF85E88093BC000AC085EC8093DD
:10154000BC001092E00104C01092DE010E94EF0680
:10155000FF91EF91BF91AF919F918F917F916F918B
:101560005F914F913F912F910F900FBE0F901F9061
:10157000189590E0FC01E455FA4F2491FC01E856DF
:10158000FA4F3491FC01EC57FA4FE491EE23B1F19C
:10159000222339F1233091F038F42130A9F02230A0
:1015A00001F584B58F7D12C0273091F02830A1F06D
:1015B0002430B9F4809180008F7D03C08091800039
:1015C0008F77809380000DC084B58F7784BD09C06C
:1015D0008091B0008F7703C08091B0008F7D8093A1
:1015E000B000F0E0EE0FFF1FE658FA4FA591B4915E
:1015F0008FB7F894EC913E2B3C938FBF0895CF9218
:10160000DF92EF92FF920F931F93CF93DF936C01C2
:101610007A018B01C0E0D0E0CE15DF0589F0D8015A
:101620006D918D01D601ED91FC910190F081E02D3D
:10163000C6010995892B11F47E0102C02196ECCFD9
:10164000C701DF91CF911F910F91FF90EF90DF9035
:10165000CF9008952091040290910302213208F066
:101660004AC08091E0018111FCCF32E03093E0016B
:1016700031E03093DF013FEF3093DE011092DD0166
:101680002093DC01A3EEB1E04CEB51E0FA013E2FD8
:10169000341B321718F43D913193F9CF1092BB01EE
:1016A0002091BB01990F922B9093BB019091BA01AD
:1016B000913061F41092BA019091BB019093BB00FC
:1016C0009091BC0093FDF8CF95EC01C095EE9093FE
:1016D000BC009091E0019230E1F39091DE019F3FD8
:1016E00079F08091DE01803241F08091DE0180331B
:1016F00031F084E005C081E003C082E001C083E0F6
:101700001092E201109204021092E1010895CF922A
:10171000DF92EF92FF92CF93DF9383E090E090937C
:1017200009038093080310920B0310920A0310928E
:101730000D0310920C0310920E030E9404086B011B
:101740007C010E948C1220E137E240E050E00E94D0
:101750009A12DC01CB01805F984DAF4FBF4FC80E8E
:10176000D91EEA1EFB1ED701C601C0921F0390932B
:101770002003A0932103B09322031092230310921D
:10178000240310922503109226030E9404086B0183
:101790007C010E948C1220EA3FE040E050E00E9471
:1017A0009A12DC01CB018854944FAF4FBF4FC80E43
:1017B000D91EEA1EFB1ED701C601C09217039093E3
:1017C0001803A0931903B0931A0310921B031092ED
:1017D0001C0310921D0310921E0380910C03909124
:1017E0000D0380910C0390910D038530910528F431
:1017F000FC01EE5CFE4F408101C041E050E0809171
:101800000C0390910D0380910C0390910D03853092
:10181000910528F4FC01E35DFE4F608101C060E0AA
:1018200070E020E030E08EEA92E00E94260980918C
:101830000C0390910D0380910C0390910D03853062
:10184000910528F4FC01EE5CFE4F408101C041E0AF
:1018500050E080910C0390910D0380910C039091C6
:101860000D038530910528F4FC01E85DFE4F608191
:1018700001C060E070E020E030E08BED92E0DF91AD
:10188000CF91FF90EF90DF90CF900C942609FF92BC
:101890000F931F93CF93DF93EC018C01085E1F4FD2
:1018A00068A71092B9011092B8011092E20110924B
:1018B00004021092E001FF24F394F092DF011092F1
:1018C000BA0182E10E94B90A83E10E94B90AE9EBF8
:1018D000F0E080818E7F808380818D7F808388E4AB
:1018E0008093B80085E48093BC0088A5F092E10164
:1018F000809303021092E2011092040261E282EAF4
:1019000092E00E9477070E942A0B88A5F092E101DD
:10191000809303021092E2011092040261E882EACD
:1019200092E00E9477070E942A0B6FE0C8010E9494
:10193000760983E08D8B8E819F81998788878C8142
:101940009D819B878A8765E0C8010E947609C8014E
:101950000E94EA08C801DF91CF911F910F91FF907B
:101960000C94F508CF93DF93CDB7DEB72E970FB663
:10197000F894DEBF0FBECDBF789484B5826084BD7D
:1019800084B5816084BD85B5826085BD85B5816083
:1019900085BD80916E00816080936E001092810001
:1019A00080918100826080938100809181008160BC
:1019B000809381008091800081608093800080917D
:1019C000B10084608093B1008091B0008160809309
:1019D000B00080917A00846080937A0080917A00D0
:1019E000826080937A0080917A00816080937A008F
:1019F00080917A00806880937A001092C100E09113
:101A00001502F091160282E08083E0911102F091BC
:101A100012021082E0911302F09114028FEC808385
:101A200010921D02E0911902F0911A0286E0808363
:101A3000E0911702F0911802808180618083E0912B
:101A40001702F0911802808188608083E09117026C
:101A5000F0911802808180688083E0911702F091F4
:101A6000180280818F7D8083EAE9F5E02491E6E821
:101A7000F5E084918823C9F090E0880F991FFC015C
:101A8000E859FA4F45915491FC01E658FA4FA59157
:101A9000B4919FB7F894FA013081822F8095832307
:101AA0008083EC91E22BEC939FBF80E198E09093D0
:101AB0000101809300018091690083608093690037
:101AC000E89A60E78EEA92E00E94470C62E78BEDAD
:101AD00092E00E94470C0E94870B212C312CF0EAE7
:101AE0004F2EFFE05F2E612C712C809108039091A6
:101AF0000903892B09F07BC020911F03309120033B
:101B0000409121035091220300912303109124035B
:101B1000809025038D86909026039E8629873A879C
:101B20004B875C870E9404084B015C01C12CD12CBF
:101B3000760169839A82AB82BC82CD82DE82EF829B
:101B4000F88629853A854B855C85B8018D859E850B
:101B50005401CB80DC80E12CF12C00E010E00E94ED
:101B6000FD1218F40E94870B30C486EC92E00E94AC
:101B7000EA08C12CD12C00E010E0F601EE58FA4F33
:101B80007F01F701849190E020E830E0002E02C050
:101B9000359527950A94E2F782239323892B71F0D8
:101BA000E091AE02F091AF020084F185E02D21E0DA
:101BB00030E0A601B8018EEA92E009950F5F1F4F51
:101BC00008301105F1F6FFEFCF1ADF0A88E0C816DA
:101BD000D10489F686EC92E00E94F50883EF92E04A
:101BE0000E94EA0883EF92E00E94F508EEC380911C
:101BF000080390910903019709F06EC120910F032A
:101C0000309110034091110350911203009113037E
:101C100010911403809015038D86909016039E8674
:101C200029873A874B875C870E9404084B015C0137
:101C3000C12CD12C760169839A82AB82BC82CD8281
:101C4000DE82EF82F88629853A854B855C85B8016E
:101C50008D859E855401CB80DC80E12CF12C00E049
:101C600010E00E94FD1208F0B0C380910E03833093
:101C700009F084C0E3E0AE2EB12CB0920903A0922B
:101C8000080310920E0380910C0390910D03809134
:101C90000C0390910D038530910528F4FC01EE5C56
:101CA000FE4F408101C041E050E080910C039091D3
:101CB0000D0380910C0390910D038530910528F45C
:101CC000FC01E35DFE4F608101C060E070E020E058
:101CD00030E08EEA92E00E94260980910C039091F8
:101CE0000D0380910C0390910D038530910528F42C
:101CF000FC01EE5CFE4F408101C041E050E080916C
:101D00000C0390910D0380910C0390910D0385308D
:101D1000910528F4FC01E85DFE4F608101C060E0A0
:101D200070E020E030E08BED92E00E9426090E94F6
:101D300004086B017C010E948C12A30192010E9495
:101D40009A12DC01CB018854944FAF4FBF4FC80E9D
:101D5000D91EEA1EFB1E97018601C092170310933D
:101D600018032093190330931A0310921B03109247
:101D70001C0310921D0310921E0327C310910E0323
:101D8000113009F455C018F0123009F0FDC18091EE
:101D90000C0390910D0380910C0390910D038530FD
:101DA000910528F4FC01EE5CFE4F408101C041E04A
:101DB00050E080910C0390910D0380910C03909161
:101DC0000D038530910528F4FC01E35DFE4F608131
:101DD00001C060E070E021E030E08EEA92E00E9415
:101DE000260980910C0390910D0380910C03909132
:101DF0000D038530910528F4FC01EE5CFE4F408117
:101E000001C041E050E080910C0390910D0380915E
:101E10000C0390910D038530910528F4FC01E85DD9
:101E2000FE4F608101C060E070E021E030E04FC013
:101E300080910C0390910D0380910C0390910D0300
:101E40008530910528F4FC01EE5CFE4F408101C015
:101E500041E050E080910C0390910D0380910C03C0
:101E600090910D038530910528F4FC01E35DFE4F50
:101E7000608101C060E070E022E030E08EEA92E034
:101E80000E94260980910C0390910D0380910C0310
:101E900090910D038530910520F4FC01EE5CFE4F1E
:101EA0001081412F50E080910C0390910D0380919F
:101EB0000C0390910D038530910528F4FC01E85D39
:101EC000FE4F608101C060E070E022E030E08BED09
:101ED00092E00E94260958C180910803909109035D
:101EE000029709F057C120910F03309110034091E0
:101EF0001103509112030091130310911403B09039
:101F00001503BD86C0901603CE8629873A874B8776
:101F10005C870E9404084B015C01C12CD12C760126
:101F200069839A82AB82BC82CD82DE82EF82F886A0
:101F300029853A854B855C85B8018D859E85540140
:101F4000CB80DC80E12CF12C00E010E00E94FD123F
:101F500008F03BC280910A0390910B0380910C031F
:101F600090910D0380910A0390910B0380910C03D3
:101F700090910D038530910528F4FC01E85DFE4F3A
:101F8000308101C030E080910A0390910B03809171
:101F90000C0390910D038530910528F4FC01EE5C53
:101FA000FE4F608101C061E080910C0390910D03B0
:101FB00080910C0390910D0380910C0390910D037F
:101FC00080910C0390910D038530910528F4FC015C
:101FD000E85DFE4FE08101C0E0E080910C0390914C
:101FE0000D0380910C0390910D038530910528F429
:101FF000DC01AE5CBE4F2C9101C021E080910E034C
:1020000080910E03F0E0E31BF1098E9FA0018F9FEA
:10201000500D112457FF02C0495F5F4F73E0559583
:1020200047957A95E1F7132F140F40910E0330E096
:10203000261B3109429FC001439F900D112497FD3B
:10204000079633E0959587953A95E1F7860F682FC7
:1020500070E020E030E0A1018EEA92E00E942609C3
:10206000612F70E020E030E0A1018BED92E00E9452
:10207000260980910E03883008F486C023E0A22E42
:10208000B12CB0920903A092080310920E030E9493
:1020900004086B017C010E948C1220E137E240E0D1
:1020A00050E00E949A12DC01CB01805F984DAF4F47
:1020B000BF4FC80ED91EEA1EFB1E97018601C092B3
:1020C0001F031093200320932103309322031092C7
:1020D000230310922403109225031092260380916B
:1020E0000C0390910D0380910C0390910D038530AA
:1020F000910528F4FC01EE5CFE4F408101C041E0F7
:1021000050E080910C0390910D0380910C0390910D
:102110000D038530910528F4FC01E35DFE4F6081DD
:1021200001C060E070E020E030E08EEA92E00E94C2
:10213000260980910C0390910D0380910C039091DE
:102140000D038530910528F4FC01EE5CFE4F4081C3
:1021500001C041E050E080910C0390910D0380910B
:102160000C0390910D038530910528F4FC01E85D86
:10217000FE4F608101C060E070E020E030E08BED58
:1021800092E00E94260921C180910E038F5F809307
:102190000E039AC08091080390910903039709F0F8
:1021A00054C080910C0390910D0380910C03909189
:1021B0000D038530910528F4FC01EE5CFE4F408153
:1021C00001C041E050E080910C0390910D0380919B
:1021D0000C0390910D038530910528F4FC01E35D1B
:1021E000FE4F608101C060E070E020E030E08EEAE8
:1021F00092E00E94260980910C0390910D0380913A
:102200000C0390910D038530910528F4FC01EE5CE0
:10221000FE4F408101C041E050E080910C0390915D
:102220000D0380910C0390910D038530910528F4E6
:10223000FC01E85DFE4F608101C060E070E020E0DD
:1022400030E08BED92E00E94260920911703309137
:1022500018034091190350911A0300911B03109128
:102260001C03B0901D03BD86C0901E03CE86298737
:102270003A874B875C870E9404084B015C01C12CA4
:10228000D12C760169839A82AB82BC82CD82DE82B8
:10229000EF82F88629853A854B855C85B8018D8566
:1022A0009E855401CB80DC80E12CF12C00E010E015
:1022B0000E94FD1220F510920E03AA24A394B12CC3
:1022C000B0920903A09208030E940408DC01CB012C
:1022D0008C599F4FAF4FBF4F8C019D0180930F03CF
:1022E00010931003209311033093120310921303E1
:1022F00010921403109215031092160366C02091D9
:102300001F0330912003409121035091220300913B
:10231000230310912403B0902503BD86C0902603AB
:10232000CE8629873A874B875C870E9404084B0139
:102330005C01C12CD12C760169839A82AB82BC826C
:10234000CD82DE82EF82F88629853A854B855C85D1
:10235000B8018D859E855401CB80DC80E12CF12C69
:1023600000E010E00E94FD1280F50E948C1224E033
:1023700030E040E050E00E949A126150643038F43E
:10238000E62FF0E0EC5DFE4F808190E002C080E03F
:1023900090E020910C0330910D0328173907A9F024
:1023A00020910C0330910D0330930B0320930A030B
:1023B00090930D0380930C0382E0A82EB12CB09271
:1023C0000903A092080310920E030E94DC038DCB38
:1023D000CF92DF92EF92FF92E5E0F2E01382128259
:1023E00088EEC82E83E0D82EE12CF12CC482D58251
:1023F000E682F7828BE391E09183808385EC90E025
:102400009587848784EC90E09787868780EC90E0BE
:10241000918B808B81EC90E0938B828B82EC90E0AF
:10242000958B848B86EC90E0978B868B118E128E29
:10243000138E148E87E293E00E94C90884E593E02E
:102440000E94C90880EA93E00E94C908E2EAF2E02B
:1024500013821282C482D582E682F7828DE491E0F3
:10246000918380838EEA92E00E94C9088BED92E00E
:10247000FF90EF90DF90CF900C94C9088F929F92BD
:10248000AF92BF92CF92DF92EF92FF92CF93DF9302
:10249000EC01688179818A819B81611571058105D3
:1024A000910521F464E279ED8BE597E02DE133EFBE
:1024B00041E050E00E949A1249015A019B01AC018F
:1024C000A7EAB1E40E94B9126B017C01ACEEB4EF53
:1024D000A50194010E94C712DC01CB018C0D9D1D4A
:1024E000AE1DBF1DB7FF03C00197A109B048888387
:1024F0009983AA83BB83BC01CD019F77DF91CF91E4
:10250000FF90EF90DF90CF90BF90AF909F908F9013
:1025100008950E943E12089584E091E00E943E12C8
:1025200008956093040170930501809306019093D0
:1025300007010895052E97FB1EF400940E94B11226
:1025400057FD07D00E94CC1207FC03D04EF40C9428
:10255000B11250954095309521953F4F4F4F5F4FA9
:10256000089590958095709561957F4F8F4F9F4FFF
:1025700008950E94EE12A59F900DB49F900DA49F08
:10258000800D911D11240895B7FF0C94B9120E947B
:10259000B912821B930B0895A1E21A2EAA1BBB1B32
:1025A000FD010DC0AA1FBB1FEE1FFF1FA217B3071F
:1025B000E407F50720F0A21BB30BE40BF50B661F35
:1025C000771F881F991F1A9469F7609570958095F9
:1025D00090959B01AC01BD01CF010895A29FB00170
:1025E000B39FC001A39F700D811D1124911DB29F47
:1025F000700D811D1124911D08952A153B054C0570
:102600005D056E057F05800791070895EE0FFF1F9A
:102610000590F491E02D099481E090E0F8940C94F9
:062620001113F894FFCF36
:10262600E603E60301000000000000002E04FF0A96
:10263600A707A607E7034506DF05C905F6059405BE
:1026460076052D04010203040401060404030106B1
:1026560003030404040106000000007303FF0A0BD1
:1026660003BA033C031A032E030000000077074752
:1026760007A70721073F073007220700000000AA27
:0826860007FF0AA707A60700E1
:00000001FF
